:020000040800F2
:10000000C8820020ADC00008C3EF0008A7EA0008BE
:100010007DEF000811CA0008A1FA000800000000E6
:1000200000000000000000000000000015C00008F3
:1000300095CB00080000000059C00008ADF300088F
:10004000C7C00008C7C00008C7C00008C7C0000874
:10005000C7C00008C7C00008C7C00008C7C0000864
:10006000C7C00008C7C00008C7C00008C7C0000854
:10007000C7C00008C7C00008C7C00008C7C0000844
:10008000C7C00008C7C00008C7C00008C7C0000834
:10009000C7C00008C7C00008C7C00008C7C0000824
:1000A000C7C00008C7C00008C7C00008C7C0000814
:1000B00075F40008C7C0000881F40008C7C0000834
:1000C000C7C00008C7C00008C7C00008C7C00008F4
:1000D000C7C0000871FA0008C7C00008C7C0000800
:1000E000C7C00008C7C00008C7C00008C7C00008D4
:1000F000C7C00008C7C00008C7C00008C7C00008C4
:10010000C7C00008C7C00008C7C00008C7C00008B3
:10011000C7C00008C7C00008C7C00008C7C00008A3
:10012000CDCA0008C7C00008D9CA0008C7C0000867
:10013000C7C000080000000000000000C7C00008A1
:10014000C7C00008C7C00008C7C00008C7C0000873
:10015000C7C00008C7C00008E5CA0008C7C000083B
:10016000C7C00008C7C00008C7C00008C7C0000853
:10017000C7C00008C7C00008000000000000000061
:04018000C7C00008EC
:020000040800F2
:1040000000000000000000000000000000000000B0
:1040100000000000000000000000000000000000A0
:104020000000000000000000000000000000000090
:104030000000000000000000000000000000000080
:0C40400000000000000000000000000074
:020000040800F2
:108000000000000000000000000000000000000070
:108010000000000000000000000000000000000060
:108020000000000000000000000000000000000050
:108030000000000000000000000000000000000040
:0C80400000000000000000000000000034
:020000040800F2
:10C00000DFF80CD000F0B4FB0048004791050108B0
:10C01000C8820020224B19680868B0E8F00F80F34E
:10C020000988BFF36F8F4FF0000080F311884EF046
:10C030000D0E70470000000006480068006880F39D
:10C04000088862B661B6BFF34F8FBFF36F8F00DF12
:10C0500000BF00BF08ED00E0EFF30980BFF36F8F72
:10C060000F4B1A6820E9F00F106008B54FF0500030
:10C0700080F31188BFF34F8FBFF36F8F04F0FEFF83
:10C080004FF0000080F31188BDE808401968086887
:10C09000B0E8F00F80F30988BFF36F8F704700BFDF
:10C0A000DC000020EFF30580704700000648804761
:10C0B00006480047FEE7FEE7FEE7FEE7FEE7FEE78D
:10C0C000FEE7FEE7FEE7FEE72DF4000801C00008EA
:10C0D00040EA01039B0703D009E008C9121F08C00A
:10C0E000042AFAD203E011F8013B00F8013B521E8A
:10C0F000F9D2704710B5002200E0521C835C8C5CC2
:10C10000A34201D1002BF8D1D8B2E1B2401A10BD40
:10C11000F0B480EA0102D40F4200B2EB410F02D228
:10C120000246084611464A0042D0C30DDDB2C1F3B3
:10C13000C752AD1A202D35DAC1F3160141F40002C1
:10C1400004B15242C5F1200602FA06F12A41104418
:10C15000B3EBD05F23D0C4B1012DA0EBC35009DCF9
:10C16000F0BC4FF0004202EAC352DBB200F500001F
:10C1700000F072BA400000F1807000EBC350A0F1F3
:10C18000807040EAD170490009E0490841EAC07175
:10C19000A0EBC35000F50000400800EBC350F0BC1A
:10C1A00000F051BA6142012202EB4101001BF6E7A7
:10C1B000F0BC704781F00041AAE780F00040A7E79B
:10C1C00080EA010210B502F00043400022D04A008C
:10C1D0001FD0010E01EB1261C0F35600C2F35602EC
:10C1E00040F4000042F40002A0FB022000047F396A
:10C1F000140400D0401C50EA124001D44000491EF3
:10C20000C2B20C0604EBD010401C4008802A02D0B9
:10C2100003E0002010BD20F00100002900DA00201A
:10C22000184310BD2DE9FE4F804681EA0300C00F80
:10C230000C46009021F0004123F00045B8EB0200CD
:10C24000A94105D24046214690461C460B4602466F
:10C2500023F00040104347D0270DC7F30A00C3F373
:10C260000A510290401A019040286BDAC3F3130080
:10C2700040F4801B0098924620B10023D2EB030AC1
:10C2800063EB0B0B01985946C0F14002504600F099
:10C29000B9F906460D4650465946019A00F0C1F9D3
:10C2A00010EB08006141002487EA115284EAE77329
:10C2B0001A4340D0009A62B3019A012A4FEA07520A
:10C2C00015DC001B61EB02014FF0004202EA07524D
:10C2D000CDE90042001C41F5801132462B4600F0AA
:10C2E000F8F903B0BDE8F08F40462146F9E7001B9E
:10C2F00061EB0201001C41F5801300185B4120181E
:10C30000A2F5001747EB030140EAD570B6196D415D
:10C3100011E06D084FEA360645EAC0754FEA07524C
:10C32000001B61EB0201001C41F5801149084FEA36
:10C3300030000019514132462B4603B0BDE8F04FA2
:10C3400000F0B8B90098012240000023D0EB0202AF
:10C3500063EBE073009821464FEAE074B8EB00000D
:10C3600061EB0401E9E783F000435BE781F0004102
:10C3700058E72DE9FE4F81EA030404F0004421F060
:10C38000004100944FF0000B23F0004350EA0104F9
:10C390005ED052EA03045BD0C3F30A54C1F30A55DA
:10C3A0002C44A4F2F3340194A0FB0254C1F3130112
:10C3B00041F48011C3F3130343F4801301FB0244DF
:10C3C00000FB034E840A970A44EA815447EA8357E4
:10C3D000A4FB076802958D0A05FB07854FEA932C9D
:10C3E00004FB0C542705029D4FEA065847EA16370E
:10C3F000B5EB08056EEB070C870E920E47EA811726
:10C4000042EA8312A7FB0201B6EB0B0164EB0004C6
:10C410002B0D43EA0C335E1844EB1C50DA465146B0
:10C42000E7FB0201C5F313044FEA0B3343EA14534D
:10C430004FEA0432019C43EA0603A4F10C0402947F
:10C44000009CCDE900B400F044F903B0BDE8F08FE2
:10C4500000200146F9E72DE9F04D81EA030404F0DC
:10C46000004B21F0004514464FF0000A23F0004134
:10C4700050EA050220D054EA01021DD0C5F30A5744
:10C480000246C5F31303C1F31300C1F30A5640F487
:10C49000801543F48013A7EB0608101BD64608F25C
:10C4A000FD3873EB050002D308F1010801E0921892
:10C4B0005B41B8F1000F03DA00200146BDE8F08DC2
:10C4C00000204FF48011064684460EE0171B73EBE4
:10C4D000050705D3121B63EB050306434CEA010C69
:10C4E00049084FEA300092185B4150EA0107EDD14C
:10C4F00052EA030012D082EA040083EA05010843ED
:10C5000005D0101BAB4106D20122002306E0002219
:10C510004FF0004302E06FF0010253101AEB0600E7
:10C520004CEB085110EB0A0041EB0B01BDE8F04D5C
:10C5300000F0C0B80EB540F2334102910021CDE9C0
:10C5400000110A460B4600F0C4F803B000BD20F00D
:10C550000040C10DC0F3160040F400007F2901DA4D
:10C5600000207047962903DCC1F19601C84070474E
:10C5700096398840704700F0004230F000400AD001
:10C58000C10D01F56071C0F3160042EA0151C20805
:10C5900040071143704700200146704730B5041E24
:10C5A00071F1000404DB4FF00044404264EB0101F0
:10C5B000141E73F1000405DB1C464FF00043524289
:10C5C00063EB04038B4208BF824230BD01F000439D
:10C5D00030B421F0004150EA010206D00A0DA2F564
:10C5E0006072C1F31301002A02DC30BC00207047E6
:10C5F000440F44EAC104C100E01830BC00EBC25053
:10C6000000F021B8202A04DB203A00FA02F10020D1
:10C6100070479140C2F1200320FA03F31943904080
:10C620007047202A06DBCB17203A41FA02F043EA92
:10C63000E07306E041FA02F3D040C2F120029140DB
:10C640000843194670470029A8BF7047401C49009D
:10C6500008BF20F00100704710B4B0FA80FC00FA67
:10C660000CF050EA010404BF10BC704749B1CCF192
:10C67000200421FA04F411FA0CF118BF012121431E
:10C680000843A3EB0C01CB1D4FEA00614FEA1020D9
:10C6900042BF002010BC704700EBC350104400297B
:10C6A000A4BF10BC7047401C490008BF20F0010027
:10C6B00010BC704710B5141E73F1000408DA401C5A
:10C6C00041F1000192185B411A4301D120F00100B1
:10C6D00010BD2DE9F04D92469B4611B1B1FA81F2A1
:10C6E00002E0B0FA80F220329046FFF78BFF04465A
:10C6F0000F4640EA0A0041EA0B0153465A460843F6
:10C7000013D0114653EA010019D0C8F14002504637
:10C7100000F040F805460E46504659464246FFF79F
:10C7200071FF084305D0012004E020463946BDE8EA
:10C73000F08D0020054346EAE0762C4337430A9803
:10C740006305E40AA0EB08000022FD0A44EA47540E
:10C750000A3002D500200146E9E7010510196941B8
:10C76000DDE9084500196941BDE8F04DA2E7000088
:10C77000064C074D06E0E06840F0010394E807002E
:10C7800098471034AC42F6D3FFF73EFCA41C0108D6
:10C79000C41C0108202A04DB203A21FA02F00021FF
:10C7A000704721FA02F3D040C2F1200291400843C1
:10C7B0001946704770B58C1810F8015B15F0070327
:10C7C00001D110F8013B2A1106D110F8012B03E02A
:10C7D00010F8016B01F8016B5B1EF9D12B0705D432
:10C7E0000023521E0DD401F8013BFAE710F8013B7B
:10C7F000CB1A921C03E013F8015B01F8015B521E97
:10C80000F9D5A142D8D3002070BD10B50146806B88
:10C81000026C12F0500F05D0806BC26CBDE8104066
:10C8200008461047016C41F40071016401688A6890
:10C8300012F0405F17D18269AAB9CA6A12F4700F68
:10C8400002D08A6852050ED44A6822F020024A605B
:10C85000016C21F480710164016CC90403D4016C82
:10C8600041F00101016400F007FC10BD10B5806BC0
:10C8700040210164416C41F00401416400F0FEFB81
:10C8800010BD10B5806B00F0F8FB10BD0822024906
:10C89000024800F077BC0000C40300203C010020E7
:10C8A0004A4910B5D1F8042322F44032C1F80423D8
:10C8B000D1F8042343681A43C1F8042301684A6885
:10C8C00022F480724A6001684A68036942EA0322DE
:10C8D0004A6001684A6822F040724A6001684A680A
:10C8E00083681A434A6001688A6822F400628A6099
:10C8F00001688A68C3681A438A60816A6FF070624F
:10C90000D14201688A6822F070628A6001688A6890
:10C910000CD0836A1A438A6001688A6822F0405208
:10C920008A6001688A68C36A1A4301E022F04052B3
:10C930008A6001688A6822F002028A6001688A6857
:10C94000836942EA43028A60016A002901684A68F1
:10C9500015D042F400624A6001684A6822F46042DD
:10C960004A6001684B684FF46044426A94FAA4F448
:10C97000B4FA84F4521EA24013434B6002E022F446
:10C9800000624A600168CA6A22F47002CA620168E1
:10C99000CA6A838B0E4C04EB03531A43CA620168C4
:10C9A0008A6822F400728A6001688A68036B42EA2E
:10C9B00043228A6001688A6822F480628A60016882
:10C9C0008A68406942EA8020886010BD00200140EA
:10C9D0000000F0FF10B5FFF7ADFD084A084BFFF768
:10C9E000C8FC0022074BFFF736FD074A074BFFF74D
:10C9F00019FCBDE81040FFF7E9BD00000AD7A3709D
:10CA00003D0AEF3F00009C40B81E85EB51B89E3FA9
:10CA1000FEE7000070B513A11548FFF76BFB144D3E
:10CA2000144CB8B10FA11448FFF764FB78B114227D
:10CA30002946124800F018FA4FF0FF36002804DBB0
:10CA40000D4800F0E1F8002804DA304670BD0A48CD
:10CA5000206000E025604C2209482168FFF738FB80
:10CA6000002070BD4346475F534543544F5200007A
:10CA70000040000804000020008000082C1A010873
:10CA8000D403002070B50D4D0D492868884201D1AE
:10CA90000C4C00E00A4C142221460B4800F0E4F94B
:10CAA0004FF0FF36002804DB286800F0ADF80028BE
:10CAB00001DA304670BD00202C6070BD04000020FB
:10CAC0000040000800800008D4030020014800F066
:10CAD00031BC0000A4020020014800F02BBC000083
:10CAE00004030020014800F025BC0000640300207E
:10CAF00001681823CAB2103AB2FBF3F2054B6FF388
:10CB00000901032A9B5CC36500D9091D816508469C
:10CB100070470000901C010810B5014600208B6989
:10CB20008A6A4FF0C07453B1B3F5005F15D072B18B
:10CB3000012A0CD0022A0AD0032A09D104E01AB132
:10CB4000012A06D0022A03D1C96AC90100D50120F1
:10CB500010BDC96AA142FAD010BD002AF7D0012A3F
:10CB6000F2D0022AF3D0032AF3D010BD30B5046806
:10CB7000256825F480252560046863608368402B60
:10CB8000036803D099600068C26030BD9A60006895
:10CB9000C16030BD7047000010B50A4C00224FF450
:10CBA0008051204600F0C8FE00224FF4005120467C
:10CBB00000F0C2FE2046BDE8104000224FF4804144
:10CBC00000F0BABE0004024013B582B000F00300CA
:10CBD000001D8DF804000A24012301AAE021074862
:10CBE000009400F039FF002806D1012303AA5C213C
:10CBF0000248009400F030FF04B010BD8401002012
:10CC000072B6704762B6704700B587B000210091D8
:10CC100002210D4B01220491984201D1029200E0C1
:10CC20000291039200F094FD05A9684600F0FCFC17
:10CC300028B100F045FD4FF0FF3007B000BD00F017
:10CC40003FFD0020F9E7000000400008002229B164
:10CC500001291FD0022920D04FF4407210490B68DF
:10CC600023F440730B600B6813430B600A6822F0D7
:10CC7000F8020A600A68F82393FAA3F3B3FA83F37D
:10CC8000984040F0020002430A60086840F4803097
:10CC9000086070474FF48072E0E74FF40072DDE700
:10CCA000103C02401348016889050FD5016821F442
:10CCB00000710160016841F400610160016821F4C4
:10CCC00000610160016841F400710160016849057B
:10CCD0000FD5016821F480610160016841F4805141
:10CCE0000160016821F480510160016841F48061B4
:10CCF00001607047003C024008490A6822F4407213
:10CD00000A600A6842F004020A600A684FF480333D
:10CD100043EA002002430A6070470000103C0240D2
:10CD2000064A136823F44073136013681360136892
:10CD300043F001031360017070470000103C024093
:10CD4000084910B50C6824F440740C600C6844F475
:10CD500040740C600C6844F001040C600260436095
:10CD600010BD0000103C0240074A136823F44073D2
:10CD70001360136843F480731360136843F0010376
:10CD80001360018070470000103C0240074A13689E
:10CD900023F440731360136843F400731360136843
:10CDA00043F001031360016070470000103C024033
:10CDB00017490868C206174805D5C26942F008023B
:10CDC000C26110220A600A68920605D5C26942F063
:10CDD0000402C26120220A600A68520605D5C269AF
:10CDE00042F00202C26140220A600A68120605D5BA
:10CDF000C26942F00102C26180220A600A68920799
:10CE000005D5C26942F01002C26102200860704775
:10CE10000C3C0240B805002070B5114904460020C2
:10CE2000C86100F08FFD06460E4D09E0601C07D07A
:10CE300024B100F087FD801BA04201D9032070BD02
:10CE40002868C003F2D42868C00701D001202860F8
:10CE5000286810F0F200F2D0FFF7AAFF012070BDA1
:10CE6000B80500200C3C02402DE9F04186B0064692
:10CE70000020174600900D460220154A012104901B
:10CE8000954201D1029100E00290039100F060FC14
:10CE900005A9684600F0C8FB4FF0FF3840B90024F0
:10CEA0000FE0002329460220326800F013FC28B16D
:10CEB00000F006FC404606B0BDE8F081641C2D1D64
:10CEC000361DBC42EDDB00F0FBFB0020F3E7000069
:10CED000004000082DE9F041054690460E4620F03E
:10CEE0000040FFF748FB07460C464046FFF743FB70
:10CEF0003A462346FFF73DFA07460C463146284698
:10CF0000FFF758F920F00040FFF735FB3A4623467B
:10CF1000FFF744FB02D80120BDE8F0810020FBE7C9
:10CF20000880000C4880704778B50024009490F881
:10CF30003C20012A19D0012280F83C200A680723EE
:10CF40000568092A13D9EE680A3A02EB42029340B7
:10CF50009E43EE600B788A680A3B03EB43039A40DA
:10CF60000368DD682A43DA6010E0022078BD2E698C
:10CF700002EB420293409E432E610A788B6802EBDB
:10CF800042029340026815692B4313614A681F23CC
:10CF9000072A13D205686E6B521E02EB8202934081
:10CFA0009E436E630B790A885B1E92B203EB830388
:10CFB0009A4003685D6B2A435A6327E005680D2A8F
:10CFC00012D22E6BD21F02EB820293409E432E633D
:10CFD0000B790A88DB1F92B203EB83039A40036844
:10CFE0001D6B2A431A6311E0EE6A0D3A02EB8202CE
:10CFF00093409E43EE620B790A880D3B92B203EB9D
:10D0000083039A400368DD6A2A43DA62174A036899
:10D01000934208D10B68122B05D1D2F8043343F4A4
:10D020008003C2F80433036893421AD10B68102BB3
:10D0300001D0112B15D1D2F8043343F40003C2F808
:10D040000433096810290CD109490A4A0968B1FB5F
:10D05000F2F101EB8101490000E0491E0091002935
:10D06000FBD180F83C40002078BD0000002001404A
:10D07000D400002040420F0070477047704770B5E1
:10D0800004004FF0000503D0206C002610B107E02B
:10D09000012070BD666484F83C60204600F01AF8F8
:10D0A000206CC00610D4206C20F4885040F00200A0
:10D0B00020642046FFF7F4FB6664206C20F0020039
:10D0C00040F00100206400E0012584F83C6028461F
:10D0D00070BD000070B5064600681D4986B08842E4
:10D0E00033D11C480025016841F48071016000685B
:10D0F000032400F480700590FE208DE8310069461D
:10D10000154800F039FB01208DE8310069461348CD
:10D1100000F032FB134C1248C4E900050015A5606D
:10D12000C4E90350400060618000A0614011E061EB
:10D130000002C4E90805204600F0D0F918B18D219D
:10D1400009A002F0AEFCB463A66306B070BD000097
:10D150000020014044380240000002400004024028
:10D1600010640240A40200202E2E2F5372632F73EE
:10D17000746D3332663278785F68616C5F6D73709E
:10D180002E630000F8B50D4600210446009190F88A
:10D190003C00012807D0012084F83C002068836807
:10D1A000DB0702D011E00220F8BD836843F00103E1
:10D1B00083602D482D4B0068B0FBF3F000EB40007E
:10D1C00000E0401E00900028FBD120688368DB0748
:10D1D00048D0236C40F20166B34343F48073236468
:10D1E0004068400505D5206C20F4005040F4805084
:10D1F0002064206CC00404D5606C20F006006064DC
:10D2000000E0616484F83C10A16B1948C863A16B0D
:10D2100018480864A16B1848C86421686FF02200A0
:10D2200008602068416841F0806141602068816841
:10D2300041F480718160216813462A464C31A06B0D
:10D2400000F0B6F90D49D1F80403C006206801D0FA
:10D25000884207D1816811F0405F03D1816841F0B5
:10D26000804181600020F8BDD400002040420F00C2
:10D270000BC8000883C800086DC8000800200140E2
:10D280002DE9F0410446876D00F05CFB064694F8FA
:10D2900035000025022806D08020606584F83450CF
:10D2A0000120BDE8F0812068016821F016010160CD
:10D2B0002068416921F080014161206C08B9A06CAF
:10D2C00020B12068016821F0080101602068016830
:10D2D00021F0010101600BE000F034FB801B052808
:10D2E00006D92020606504F8345F03206070D8E719
:10D2F00020680068C007EFD194F85C103F20884098
:10D30000B86004F8345F012060700020C9E790F82D
:10D310003510022903D08021416501207047052185
:10D3200080F835100068016821F0010101600020DB
:10D33000704700002DE9F84304464FF00008CDF88F
:10D34000008064484FF41651A56D0068B0FBF1F7FA
:10D350002E6894F85C10082000FA01F131420FD0D9
:10D3600021680A6852070BD50A6822F004020A6095
:10D3700094F85C108840A860606D40F00100606522
:10D3800094F85C1054488840304208D021684969BC
:10D39000090604D5A860606D40F0020060654E4843
:10D3A00094F85C10C01C8840304208D0216809689D
:10D3B000890704D5A860606D40F00400606594F8AA
:10D3C0005C1010208840304218D021680968090795
:10D3D00014D5A86020680168490304D500680003DB
:10D3E00008D5A16C07E00168C90503D4016821F0E4
:10D3F00008010160216C09B12046884794F85C104F
:10D400002020884030424FF0010631D02168096861
:10D41000C9062DD5A86094F8350005282068016854
:10D4200006D0490347D5006800031DD4616C1CE099
:10D4300021F0160101602068416921F080014161FD
:10D44000206C08B9A06C20B12068016821F00801A7
:10D45000016094F85C103F208840A86084F8348014
:10D4600084F83560216D1FE0E16B09B120468847E3
:10D47000606D00282BD0606DC00714D0052084F8A3
:10D4800035002068016821F0010101600098401C0E
:10D490000090B84203D820680068C007F6D184F82D
:10D4A000348084F83560E16C002910D001B020464A
:10D4B000BDE8F04308470168C905D5D4016821F0EB
:10D4C0001001016084F8348084F83560CCE7BDE851
:10D4D000F8830000D4000020010080002DE9F04115
:10D4E000044600F02FFA06465CB1002584F834505B
:10D4F000022084F835002068016821F001010160F4
:10D500000DE00120BDE8F08100F01CFA801B052829
:10D5100005D920206065032084F83500F2E72068F3
:10D520000068C007F0D12268116820480140D4E9A2
:10D5300001031843D4E9033633431843636918439E
:10D54000A3691843E3691843236A18430843616ACF
:10D55000042903D1D4E90B13194308431060206850
:10D560004069666A20F0070130460E43012704280F
:10D570000CD1A06A0643E06A40B12046FFF7CCFA1E
:10D5800020B14020606584F83570BAE720684661B4
:10D590002046FFF7ADFA94F85C203F21914081606E
:10D5A000656584F835700020ACE700003F8010F01E
:10D5B0002DE9F0410446866D90F8340000250128DD
:10D5C0000DD0012084F8340094F835700020012F2C
:10D5D00007D084F8340002252846BDE8F0810220F7
:10D5E000FBE7022784F8357060652046FFF7BEFA36
:10D5F00094F85C103F208840B0602068016841F0DA
:10D60000160101602068416941F080014161206C90
:10D6100020B12068016841F00801016020680168BC
:10D6200041F001010160D7E72DE9F04704462248A7
:10D630000F46017E01290AD00121804601764CF275
:10D6400050394846FFF7E8FB020003D02FE00220E4
:10D65000BDE8F0874FF0FF3038602068174D012893
:10D6600001D0A6681CE0207C6168FFF745FB4846B6
:10D67000FFF7D2FB0246286820F00400286014E07F
:10D68000217C3046FFF7E2FA4846FFF7C5FB02006F
:10D69000286820F0FA00286001D03E6005E0761C82
:10D6A000D4E902100844B042EAD8FFF7FBFA00219F
:10D6B00088F818101046CBE7B8050020103C02404F
:10D6C0000348016841F000410160002070470000FC
:10D6D000103C02402DE9F0471B4E05461446307EB3
:10D6E0001F468946012808D0012030764CF2503878
:10D6F0004046FFF791FB18B114E00220BDE8F08727
:10D700009DB1012D16D0022D19D022463B46484628
:10D71000FFF716FB4046FFF77FFB0C490A6822F033
:10D7200001020A6000213176E8E7E1B24846FFF7DE
:10D73000F7FAEFE7A1B24846FFF716FBEAE7214602
:10D740004846FFF723FBE5E7B8050020103C024000
:10D7500006480068002807DA044805490C380160CB
:10D76000044901600020704701207047103C0240CE
:10D7700023016745AB89EFCD2DE9F84FDFF888B17C
:10D7800000224FF001084FF0030A4FF00F090BF190
:10D79000040E00BF0B6808FA02F42340A3426ED1C6
:10D7A0004D68022D01D0122D0ED1D50800EB850C4D
:10D7B000DCF820505607F70E09FA07F6B5430E6954
:10D7C000BE402E43CCF82060066855000F790AFA57
:10D7D00005FC07F0030726EA0C06AF403743076055
:10D7E0004E68012E05D0022E03D0112E01D0122E2C
:10D7F0000ED18668CF6826EA0C06AF4037438760B3
:10D800004668A6430C79C4F3001494403443446042
:10D81000C4688E6824EA0C04AE402643C6604C6897
:10D82000E4006AD5394C256845F4804525602468B4
:10D8300022F0030504F480440094354C2E19D6F8E8
:10D84000084895072F0F09FA07F5AC43314DA84258
:10D8500001D1002529E0304DA84201D1012524E065
:10D860002E4DA84201D102251FE02D4DA84201D125
:10D8700003251AE02B4DA84202D1042515E03CE017
:10D88000294DA84201D105250FE0284DA84201D11C
:10D8900006250AE0264DA84201D1072505E0254DC1
:10D8A000A84201D1082500E00925BD402543C6F85E
:10D8B0000858DBF800405D464E689C43F60300D5EF
:10D8C0001C432C60DEF8004075464E689C43B6034E
:10D8D00000D51C432C600C4D08352C684E689C43C9
:10D8E000F60200D51C432C60074D0C352C684E68A1
:10D8F0009C43B60200D51C432C60521C102AFFF436
:10D9000049AFBDE8F88F0000003C014044380240B8
:10D9100000300140000002400004024000080240C4
:10D92000000C0240001002400014024000180240A7
:10D93000001C0240002002400AB1816170470904C6
:10D94000FBE700000148006870470000D800002095
:10D9500070B5040004D094F83D00002510B106E035
:10D96000012070BD84F83C50204600F011F92420BD
:10D9700084F83D002068016821F00101016000F099
:10D98000AFFA33492268B0FBF1F15160314A636864
:10D99000934206D94FF4967359434FF47A73B1FB0F
:10D9A000F3F12368491C1962616891420BD8490060
:10D9B000B0FBF1F2C2F30B02042A01D2042019E0F9
:10D9C000B0FBF1F016E0A3689BB301EBC10202EBE0
:10D9D0000112B0FBF2F242F48042120530D04BB398
:10D9E00001EBC10202EB0111B0FBF1F040F4804009
:10D9F00040F400402168C861D4E907010843216868
:10DA00000860D4E90310084321688860D4E905015F
:10DA100008432168C8602068016841F00101016085
:10DA20002564202084F83D00256384F83E500020C2
:10DA300070BD00E006E001EB4102B0FBF2F2CCE782
:10DA40000120D7E701EB4101B0FBF1F0D0E7000086
:10DA500040420F00A08601002DE9F84F1F46904676
:10DA60008A460446DDF82890FFF76CFF064694F8D6
:10DA70003D0020287ED119230122434920460096EB
:10DA800001F097F800287DD194F83C00012879D066
:10DA9000012084F83C0020680168C90703D10168AF
:10DAA00041F0010101602068016821F4006101601A
:10DAB000212084F83D00102084F83E0000252564D4
:10DAC000C4F8248067853148E062608D2085334644
:10DAD0004A465146204600F0FBFF28B1206C84F8EE
:10DAE0003C5004284CD00DE02068416980690090CA
:10DAF00030E032464946204601F0D0F828B1206C8B
:10DB0000042838D00320BDE8F88F606A411C6162A8
:10DB1000216800780861608D401E6085208D401E60
:10DB200080B2208521684A69D24352070BD450B194
:10DB3000606A421C626200780861608D401E6085E8
:10DB4000208D401E208532464946204601F00AF8C5
:10DB50000028D4D1208D0028CBD154F83D0B01688A
:10DB600041F400710160202004F81E09E577657713
:10DB70000020C8E706E02068016841F400710160F8
:10DB80000120C0E70220BEE7020010000000FFFFF6
:10DB900000B500680E4987B0884217D14FF4406045
:10DBA0000090122001900120029003200390042095
:10DBB000049069460748FFF7DFFD0748016841F414
:10DBC00080010160006800F48000059007B000BD8E
:10DBD00000580040000402404038024070B5040084
:10DBE00011D021684CF6CC400860216845F25550B0
:10DBF0000860D4E9000141602168A0688860FFF7EF
:10DC0000A1FE054609E0012070BD00BFFFF79AFEA6
:10DC1000401B302801D9032070BD2068C06800284F
:10DC2000F4D121684AF6AA200860002070BD00687F
:10DC30004AF6AA21016000207047000002480168EE
:10DC4000491C016070470000D80000200B4810B547
:10DC5000016841F400710160016841F48061016074
:10DC6000016841F480710160032000F075F80F2015
:10DC700000F006F800F018F8002010BD003C02404B
:10DC800010B5044607484FF47A710068B0FBF1F014
:10DC900000F00CFB00222146501E00F03DF8002051
:10DCA00010BD0000D400002010B5032000F054F88F
:10DCB000002211466FF00B0000F02EF800221146F2
:10DCC0006FF00A0000F028F8002211466FF00900FA
:10DCD00000F022F800221146501F00F01DF800222B
:10DCE0001146101F00F018F800220F21901E00F0BE
:10DCF00013F800220F21BDE81040501E00F00CB8B0
:10DD000000F01F02012191404009800000F1E02055
:10DD1000C0F8001170470000F0B40E4B1B680C46B1
:10DD2000C3F30223C3F10705042D00D90425191DEF
:10DD3000072901D2002300E0DB1E012606FA05F1C7
:10DD4000491E214099409E40761E16403143F0BC4A
:10DD500001F038B90CED00E0064900F00702086850
:10DD60004FF6FF03184040EA0220034A10430860C0
:10DD7000704700000CED00E00000FA052DE9F047C7
:10DD8000DFF8409105460E46D9F8000000F00F017B
:10DD9000F0B28046B14208D2014689F80010D9F8A5
:10DDA000000000F00F00B04262D12878464C800796
:10DDB00005D52068A96820F0F00008432060287885
:10DDC000C00747D0404968680839012816D009685B
:10DDD000022816D0890700294ADA216821F00301B8
:10DDE00001432160FFF7AEFD6968074641F28830C4
:10DDF00001290FD00229824619D027E0096889033A
:10DE0000E9E78901E7E700BFFFF79CFDC11B51452A
:10DE100001D918E082462068C0F381000128F3D1BF
:10DE200018E000BFFFF78EFDC11B51450BD82068DD
:10DE3000C0F381000228F5D10CE000BFFFF782FD9E
:10DE4000C11B514502D90320BDE8F087206810F0BE
:10DE50000C0FF3D1D9F80010484601F00F01B14280
:10DE600008D980F80080006800F00F00B04201D0AF
:10DE70000120E9E72878400705D52068E96820F403
:10DE8000E050084320602878000706D520682969FB
:10DE900020F4604040EAC100206000F051F82168A1
:10DEA000F02292FAA2F201F0F001B2FA82F2D1402D
:10DEB000064A515CC840064908600F20FFF7E0FEA3
:10DEC0000020C1E7003C024008380240781C0108ED
:10DED000D40000200148006870470000D4000020F2
:10DEE00008480949006809684FF4E05292FAA2F222
:10DEF00001F4E051B2FA82F2D140044A515CC840C8
:10DF000070470000D400002008380240881C010837
:10DF100008480949006809684FF4604292FAA2F281
:10DF200001F46041B2FA82F2D140044A515CC84027
:10DF300070470000D400002008380240881C010807
:10DF400030B51948006810F00C01184812D0441080
:10DF500004290ED008290DD11349091F0A6802F0BF
:10DF60003F030A68550247F6C07204D5B4FBF3F0CC
:10DF700003E0204630BDB0FBF3F00B6809681340A6
:10DF800092FAA2F2B2FA82F2D34058434FF44032EE
:10DF900092FAA2F201F44031B2FA82F2D140491C65
:10DFA0004900B0FBF1F030BD083802400024F40015
:10DFB0002DE9F84F0446DFF8CC820078A8F1040B75
:10DFC000C007ABF1040537D0D8F800104046C1F3C4
:10DFD0008101012908D00068C0F3810002280AD11C
:10DFE000DBF80000400206D52868800324D560686D
:10DFF000002878D020E0A3492079891F0870606844
:10E0000068B1FFF79FFC064605E000BFFFF79AFCEA
:10E01000801B642868D828688003F7D50CE0FFF7D8
:10E0200091FC064605E000BFFFF78CFC801B6428CE
:10E03000F0D828688003F7D42078934E80074FF0FB
:10E04000010A4FF0000742D5D8F80010404611F001
:10E050000C0F08D00068C0F3810002280AD1DBF859
:10E060000000400206D42868800714D5E068012823
:10E0700039D110E0E068D8B1C6F800A0FFF762FC23
:10E08000814605E0FFF75EFCA0EB09000228C1D83D
:10E0900028688007F6D52868F82292FAA2F221694A
:10E0A000B2FA82F220F0F8009140084328600EE0B6
:10E0B0003760FFF747FC814606E000BFFFF742FCF0
:10E0C000A0EB090002280FD828688007F6D4207832
:10E0D000000728D56D486169A1B1C0F800A0FFF71D
:10E0E00031FC814608E0CAE079E000BFFFF72AFC76
:10E0F000A0EB0900022872D862486C3000688007E3
:10E10000F4D510E00760FFF71DFC814606E000BF74
:10E11000FFF718FCA0EB0900022860D859486C30C2
:10E1200000688007F4D42078400749D55548383036
:10E13000016841F080510160006800F0805000905B
:10E140005348016841F480710160FFF7FBFB814691
:10E1500006E000BFFFF7F6FBA0EB090002283ED85F
:10E160004B480068C005F5D5DFF81891207A09F111
:10E17000680989F80000A06888B1FFF7E3FB009008
:10E1800008E000BFFFF7DEFB0099411A41F288303A
:10E1900081426CD8D9F800008007F3D510E0FFF772
:10E1A000D1FB009008E000BFFFF7CCFB0099411ABB
:10E1B00041F2883081425AD8D9F800008007F3D460
:10E1C000A069E0B3D8F80010C1F38101022956D04C
:10E1D0000228376604D0FFF7B5FB04464AE046E064
:10E1E000FFF7B0FB074604E0FFF7ACFBC01B642859
:10E1F0003DD828688001F7D4D4E90701084347F6E1
:10E20000C07292FAA2F2616AB2FA82F29140A26AF4
:10E210004FF0FF3303EB52024FF4403393FAA3F372
:10E22000B3FA83F39A40114308434FF0706292FAB5
:10E23000A2F2E16AB2FA82F29140084300E01CE0E7
:10E24000CBF80000C6F860A0FFF77CFB044604E0B2
:10E25000FFF778FB001B642809D828688001F7D5F0
:10E260000BE000BFFFF76EFB001B642802D9032000
:10E27000BDE8F88F28688001F4D40020F8E7012079
:10E28000F6E700000838024000004742800E47428F
:10E29000007000404FF0E0210428086903D020F00E
:10E2A00004000861704740F00400FAE710B5401E12
:10E2B000B0F1807F01D3012010BD4FF0E0246061F8
:10E2C0000F21601700F07EFE0020A0610720206172
:10E2D000002010BD7047704730B590F83C20012AEF
:10E2E00020D0012280F83C20022380F83D300368D2
:10E2F0005C6824F070045C6003685C680D682C4303
:10E300005C6003689C6824F080049C6003689C68DF
:10E3100049680C439C6080F83D20002180F83C1047
:10E32000084630BD022030BD10B5040003D094F87B
:10E330003D0010B107E0012010BD002084F83C0032
:10E34000204600F00DF8022084F83D00211D2068D1
:10E3500001F09CF8012084F83D00002010BD000071
:10E3600008B501681448B1F1804F14D0134A9142A6
:10E3700020D1016841F0040101600068002200F032
:10E380000400009005211E20FFF7C6FC1E20BDE8FA
:10E390000840FFF7B5BC016841F001010160006869
:10E3A000002200F00100009005211C20FFF7B4FCC2
:10E3B0001C20ECE708BD0000403802400008004087
:10E3C0000168CA6842F00102CA600068016841F051
:10E3D0000101016000207047022180F83D100168B2
:10E3E0000A6A41F211131A4207D10A6A9B101A42B3
:10E3F00003D10A6822F001020A60012180F83D1071
:10E40000002070470168CA6822F00102CA600068F3
:10E41000016A41F21112114207D1016A92101142B0
:10E4200003D1016821F0010101600020704770B53F
:10E43000044690F83C00012817D0012584F83C5090
:10E44000022084F83D002068826822F0770222F4DE
:10E450007F4282600868502837D00DDC202859D0D0
:10E4600005DC88B3102841D151E0022070BD30286E
:10E4700053D040283AD13FE060282ED070280BD0EE
:10E48000B0F5805F03D0B0F5005F2FD110E02068B9
:10E49000816821F0070115E0CB68D1E901212068EE
:10E4A00001F058F82168886840F0770088601DE026
:10E4B000CB68D1E90121206801F04CF8206881681F
:10E4C00041F48041816011E01EE0CA68496820681B
:10E4D00001F052F85021206806E0CA6849682068B7
:10E4E00001F05BF86021206801F03EF884F83D50AF
:10E4F000002084F83C0070BDCA684968206801F0BB
:10E500003BF840212068EFE700212068ECE710216C
:10E510002068E9E720212068E6E730212068E3E76A
:10E52000704770B50446006801694FF00005C943A3
:10E53000890715D4C168C943890711D4E91E01614F
:10E5400001202077206880698007204602D0FFF7ED
:10E55000E7FF04E000F098F8204600F096F82577F1
:10E5600020680169C943490717D4C168C9434907ED
:10E5700013D46FF0040101610220207720688069C4
:10E5800010F4407F204602D0FFF7CAFF04E000F0FD
:10E590007BF8204600F079F8257720680169C943A7
:10E5A000090716D4C168C943090712D46FF00801DE
:10E5B0000161042020772068C0698007204602D0CE
:10E5C000FFF7AEFF04E000F05FF8204600F05DF8D2
:10E5D000257720680169C943C90617D4C168C943B2
:10E5E000C90613D46FF0100101610820207720685C
:10E5F000C06910F4407F204602D0FFF791FF04E08D
:10E6000000F042F8204600F040F8257720680169C4
:10E61000C943C90708D1C168C943C90704D1891EC4
:10E620000161204600F032F820680169C9430906FB
:10E6300009D4C168C943090605D46FF0800101619E
:10E640002046FFF747FE20680169C943490609D4FF
:10E65000C168C943490605D46FF0400101612046F5
:10E6600000F022F820680169C94389060BD4C1680B
:10E67000C943890607D46FF0200101612046BDE837
:10E680007040FFF728BE70BD704770470068B0F15A
:10E69000804F04D00349C84203D102F083BD00F08B
:10E6A00069BE704700F8FFBF704710B504460068A8
:10E6B000416994F83920C1F3C011212A0BD151B11D
:10E6C000416921F080014161206B08B1FEF7D8FD5E
:10E6D000204600F0EEFF2068416994F83A20C1F32B
:10E6E0008011222A0BD151B1416921F040014161D1
:10E6F000606B08B1FEF7C4FD204600F0CCFF00209F
:10E7000010BD02F0C1BA000070B50268044610687E
:10E71000D168536910F00F0F51D003F0010501F4D7
:10E72000907635435DD0C20705D0CA0503D5E26BAC
:10E7300042F00102E263420705D5DA0703D0E26B3B
:10E7400042F00202E263820705D5DA0703D0E26BEA
:10E7500042F00402E263020705D5DA0703D0E26B58
:10E7600042F00802E263E26B002A34D0800604D54E
:10E77000880602D5204600F0A5FF20684069E16BBD
:10E78000C0F3801001F008010143204624D000F0BE
:10E7900082FF2068416949061AD5416921F040018C
:10E7A0004161606BA0B11B490165606BFEF7AFFD75
:10E7B000002810D0606B016DBDE8704008478306EB
:10E7C0000FD58B060DD52046BDE8704000F07ABF0E
:10E7D0002046FFF796FF70BDFFF793FF0020E06330
:10E7E00070BD030606D50B0604D52046BDE8704073
:10E7F00001F004B94006F3D54806F1D5D1682046AA
:10E8000021F04001D160202184F8391000F040F956
:10E8100070BD0000BFF5000870B5040004D094F886
:10E820003900002510B106E0012070BD84F8385091
:10E83000204600F023F8242084F839002068C168BD
:10E8400021F40051C160204600F082FF2068016978
:10E8500021F4904101612068416921F02A01416160
:10E860002068C16841F40051C160E563202084F84C
:10E87000390084F83A00002070BD00002DE9F04313
:10E88000064600682E4987B0884256D12D4800259B
:10E89000016841F0100101600068694600F0100055
:10E8A00005904FF4C060009002200190012002907A
:10E8B00003200390072004902348FEF75DFF244CBB
:10E8C00022484FF000672060C4E901754FF480686A
:10E8D000C4E9035865614FF40039A561C4E90759DB
:10E8E00020466562FEF7FAFD20B140F25B1119A0E7
:10E8F00001F0D7F87463A66314481D4C7830E4E83F
:10E9000002074020A4E82101194844F81459A561E0
:10E91000C4E907596562FEF7E1FD20B140F26D11CF
:10E920000CA001F0BEF83463002206212520A66366
:10E93000FFF7F2F92520FFF7E3F907B0BDE8F08310
:10E940000010014044380240000002404064024090
:10E95000040300202E2E2F5372632F73746D3332F5
:10E96000663278785F68616C5F6D73702E6300004B
:10E9700064030020F8B5044690F83A0020283CD102
:10E98000C1B3BAB394F83800012836D0012084F816
:10E990003800A162A2850025E563222084F83A00B0
:10E9A000636B1748D863636B16481864636B16482B
:10E9B000D864606B134605650846666B216802469D
:10E9C0003046091DFEF7F4FD20680168416800919A
:10E9D00084F83850C16841F48071C1602068416991
:10E9E00041F0010141612068416941F0400141610C
:10E9F0000020F8BDFFE70120FBE70220F9E7000057
:10EA000019F6000855F60008CFF500087047704762
:10EA100070B5044690F83900202830D169B362B34C
:10EA200094F8380001282AD0012084F838002162A7
:10EA3000A284E2840025E563212084F83900236B59
:10EA40001048D863236B10481864236B0F48D864B0
:10EA5000206B134605652668206B321DFEF7A8FD66
:10EA600021686FF04000086084F8385020684169E0
:10EA700041F080014161002070BD012070BD022085
:10EA800070BD00005FF600088DF60008CFF50008A5
:10EA900000680349C84201D102F058B8704700002D
:10EAA00000F0FEBF7047FEE701684A69D243520595
:10EAB0000CD46FF480624A6104210164002140F8A3
:10EAC000301F2022427301730120704700207047DD
:10EAD000F8B50446C06A1E460D461746042807D0FE
:10EAE000012805D010F5803F02D0206B122804D1F8
:10EAF0002068016841F480710160134600224FF0E4
:10EB000001112046009600F054F8A0B92069B0F534
:10EB1000804F12D00620216800EAD51040F0F000A6
:10EB2000086133463A460E49204600F073F838B182
:10EB3000206C042811D00320F8BD05F0FE0000E091
:10EB4000E8B221680861064933463A46891F2046E3
:10EB500000F060F80028EBD1F8BD0120F8BD0000FE
:10EB60000800010070B516460D4604461AE020461E
:10EB7000FFF79AFF08B1012070BD681C12D025B1C3
:10EB8000FEF7E0FE801BA8420CD954F8400F40F07D
:10EB9000200044F8100900202060202161732073B8
:10EBA000032070BD20684069C0434007DFD40020C7
:10EBB00070BD2DE9F0471E4690460D460446C1F350
:10EBC0000747DDF8209012E0701C10D02EB1FEF740
:10EBD000B9FEA0EB0900B04209D9002044F8300F7B
:10EBE00020216173A07320730320BDE8F0872068A3
:10EBF000012F0AD0806925EA00000004000C06D02D
:10EC000000214145E0D00020EFE74069F3E7012112
:10EC1000F7E700002DE9F0479A4691460D46044675
:10EC200000264FF02008C1F307472AE0206840691A
:10EC3000C043400512D42068016841F400710160AE
:10EC400021686FF48060486104202064266384F8A2
:10EC50003D8084F83C600120BDE8F087B9F1FF3FBA
:10EC60000FD0B9F1000F05D0FEF76CFEA0EB0A0142
:10EC7000494506D944F8306F84F80D802673032087
:10EC8000EAE72068012F07D0D0F8180025EA000035
:10EC90000004000CE0D0C9E74069F7E770B51646FC
:10ECA0000D4604461AE02046FFF7FEFE08B101209B
:10ECB00070BD681C12D025B1FEF744FE801BA8422F
:10ECC0000CD954F8400F40F0200044F810090020FF
:10ECD0002060202161732073032070BD206840698B
:10ECE000C0430006DFD4002070BD00007FB530486F
:10ECF0002E490124016000214160816004612D4A98
:10ED00000162C0E90A210825C160C0E90645046323
:10ED10004461FEF7B4F900B1FEE7009401940324C6
:10ED2000694623480294FEF7FFF800B1FEE702208F
:10ED30000090019069461E48FEF7F6F800B1FEE724
:10ED4000009469461A480194FEF7EEF800B1FEE718
:10ED500004200090019069461548FEF7E5F800B1DF
:10ED6000FEE705200090019069461148FEF7DCF8A7
:10ED700000B1FEE706200090019069460C48FEF7BE
:10ED8000D3F800B1FEE707200090019069460848DB
:10ED9000FEF7CAF800B1FEE7009569460448019500
:10EDA000FEF7C2F8002800D0FEE77FBD002001403A
:10EDB0003C0100200100000F2DE9F043334887B0EB
:10EDC0000024016841F080010160016801F08001C8
:10EDD0000591016841F001010160016801F0010144
:10EDE0000591016841F002010160016801F0020132
:10EDF0000591016841F004010160016801F004011E
:10EE00000591016841F0080101600068204F00F0A1
:10EE1000080047F2F8050590002229463846FEF71B
:10EE20008BFDDFF870804FF4C0560022314640461B
:10EE3000FEF782FDDFF86090002204214846FEF7CD
:10EE40007BFD00950125CDE90154694638460394C0
:10EE5000FEF792FCE803CDE90004694638460294C7
:10EE6000FEF78AFC0096CDE90154694640460394BA
:10EE7000FEF782FC04200090CDE901546946484623
:10EE80000394FEF779FC07B0BDE8F0833038024008
:10EE90000004024000080240000C02400B4810B57C
:10EEA000094901600A49416000214FF480428160B4
:10EEB000C0E9031241618161C1610162FEF748FD51
:10EEC000002800D0FEE710BD00580040840100205B
:10EED000A086010010B5134886B04FF08041016054
:10EEE00045F6C0510024C0E901140A21C0E9031409
:10EEF0008461FFF719FA00B1FEE74FF480500090EB
:10EF000069460848FFF793FA00B1FEE7049404A9A4
:10EF100004480594FFF7E0F9002800D0FEE706B0AA
:10EF200010BD0000E401002010B5134886B011495F
:10EF30000024C0E900144FF49661C0E90241046165
:10EF40008461FFF7F1F900B1FEE74FF480500090C3
:10EF500069460948FFF76BFA00B1FEE7049404A97B
:10EF600005480594FFF7B8F9002800D0FEE706B081
:10EF700010BD00000008004024020020FEE7000051
:10EF80001CB500244FF4612322460A212046009438
:10EF900000F066FF0120CDE900040023802202A1D9
:10EFA000044802F0B3FB1CBD4D6F6462757320749E
:10EFB00061736B00B9EF000800F084FD00F090FF72
:10EFC000FCE770470907090E002806DA00F00F0079
:10EFD00000F1E02080F8141D704700F1E02080F877
:10EFE00000147047024610B5002011F1FF4F0FD2F8
:10EFF000084B99420CDC0848806800EBC204A06909
:10F00000FDF7DEF8E169FDF783F8FDF7A0FAC0B27D
:10F0100010BD00000000FE42080000201CB50322C5
:10F020000021012002F06EF90B4C60600B48006873
:10F03000016841F0040101604FF07E5000F032F8A9
:10F04000A07000210220CDE900010B46802204A11E
:10F05000074802F05BFB1CBD08000020E401002013
:10F060005079726F207371756962207461736B00DF
:10F07000A5F2000810B5044611F1FF4F0DD2084863
:10F0800081420ADC2046FFF7ADFF01462046FDF72E
:10F090009BFD002800D0012010BD022010BD000003
:10F0A0000000FE4270B50024064625463146204643
:10F0B000FFF7E0FF00B10546641CE4B2032CF5D96C
:10F0C000284670BD2DE9F047514D044600228021AD
:10F0D0002846FEF731FC002240212846FEF72CFC92
:10F0E000002220212846FEF727FC00221021284676
:10F0F000FEF722FC002208212846FEF71DFC454FA2
:10F10000002204213846FEF717FC434E4FF4805886
:10F11000002241463046FEF70FFC4FF40069002202
:10F1200049463046FEF708FC012C25D0022C6CD154
:10F13000012280212846FEF7FFFB012240212846BC
:10F14000FEF7FAFB012220212846FEF7F5FB0122FB
:10F1500010212846FEF7F0FB012208212846FEF781
:10F16000EBFB012204213846FEF7E6FB0122414673
:10F170003046FEF7E1FB43E0284CA068007DC00765
:10F1800004D0012280212846FEF7D6FBA068007D2E
:10F19000800704D5012240212846FEF7CDFBA06858
:10F1A000007D400704D5012220212846FEF7C4FB3C
:10F1B000A068007D000704D5012210212846FEF733
:10F1C000BBFBA068007DC00604D5012208212846AB
:10F1D000FEF7B2FBA068007D800604D50122042161
:10F1E0003846FEF7A9FBA068007D400604D5012241
:10F1F00041463046FEF7A0FBA068007D000604D51E
:10F20000012249463046FEF797FBBDE8F087000033
:10F2100000040240000C02400008024008000020E8
:10F2200070B51D4C00252E466570A06800EB85006A
:10F2300041682846FFF71EFF00282CD16D1CEDB257
:10F24000032DF2D90120FFF73DFFA16813480122E9
:10F2500081F8392003685E62114B4FF47A751B68A0
:10F26000B3FBF5F30568AB6205680B88EB620988B0
:10F27000C1600168CB6823F00103CB600068426184
:10F280000648FFF79DF802E0322001F023FE607887
:10F290000028F9D0002070BD08000020E401002003
:10F2A000D40000200C4C4FF47A754FF07E560023AA
:10F2B0002A461946606802F049F8012803D000F098
:10F2C0000DF82070F3E7FFF7ABFFA0703046FFF7B3
:10F2D000E9FEA070EBE70000080000202DE9F041F6
:10F2E0001E4C002602206670FFF7ECFE1C4901252B
:10F2F0000868C5621B48CD6042F210720068B0FB1E
:10F30000F2F00A6890620868C26822F00102C260E6
:10F31000086845610846FFF753F82807124904E0DA
:10F320000860BFF34F8FBFF36F8F6278002AF7D06A
:10F330000E4FDFF83C80002437F81400FDF74AFB3D
:10F34000404503DB05FA04F03043C6B2641CE4B266
:10F35000042CF1D33046BDE8F08100000800002005
:10F36000E4010020D400002004ED00E0200400208F
:10F370009A99993E094910B507480A680260496898
:10F3800041600020FFF79EFE05480021826882F858
:10F3900039100121417010BD20040020C403002059
:10F3A00008000020012001F06BF9FBE710B5FEF723
:10F3B00045FCBDE8104001F06FB930B591B00A20AE
:10F3C000009001201021CDE903010225CDE90505BA
:10F3D00000240820CDE90740C020099004200A90AD
:10F3E0000B906846FEF7E4FD00B1FEE70F20CDE983
:10F3F0000C059020CDE90E0400210CA81094FEF716
:10F40000BDFC00B1FEE7FEF765FD4FF47A71B0FB7D
:10F41000F1F0FEF74BFF0420FEF73CFF00220F2126
:10F42000501EFEF779FC11B030BD00000D48016898
:10F4300041F0010101600B4A0021083211600268AD
:10F44000094B1A400260031D084A1A60026822F440
:10F450008022026003480C300160054958060860AC
:10F460007047000000380240FFFFF6FE1030002415
:10F4700008ED00E00148FFF754B80000E401002067
:10F480000148FFF74EB8000024020020F0B50268E2
:10F49000254C264D264E274F274B4FF0804CA0423F
:10F4A00009D0604507D0A84205D0B04203D0B84289
:10F4B00001D0984204D122F0700E4A6842EA0E024E
:10F4C000A0421BD0604519D0A84217D0B04215D039
:10F4D000B84213D0984211D0184DA8420ED0184D02
:10F4E000A8420BD0174DA84208D0174DA84205D00E
:10F4F000164DA84202D0164DA84203D122F4407501
:10F50000CA682A4322F080054A692A4302608A6851
:10F51000C2620A688262A04201D0984201D10969A0
:10F52000016301214161F0BD000001400004004081
:10F5300000080040000C0040000401400040014071
:10F54000004401400048014000180040001C0040F9
:10F550000020004010B5846842EA032224F47F446E
:10F560000A432243826010BD826822F070020A437F
:10F5700042F007018160704710B5036A046A24F005
:10F5800001040462846924F0F00444EA021423F0C4
:10F590000A020A438461026210BD10B5036A23F0B7
:10F5A000100303628369046A23F4704343EA02325E
:10F5B00024F0A00343EA01118261016210BD10B57D
:10F5C000806B0021C185C184FFF79BF810BD70B529
:10F5D000846B2068406994F83910C0F3C01000258E
:10F5E000212904D118B1E584204600F062F8206892
:10F5F000406994F83A10C0F38010222904D118B160
:10F60000E585204600F047F8E06B40F01000E0632D
:10F610002046FFF776F870BD10B50146806B09688B
:10F620000968C90513D40021C1850168CA6822F49C
:10F630008072CA6001684A6922F001024A61016869
:10F640004A6922F040024A61202180F83A10FFF70F
:10F65000DDF910BD10B5806BFFF7D9F910BD10B5FD
:10F660000146806B09680968C9050CD40021C18472
:10F6700001684A6922F080024A610068C16841F06D
:10F680004001C16010BDFFF703FA10BD10B5806BDB
:10F69000FFF708FA10BD0168CA6822F49072CA60C8
:10F6A00001684A6922F001024A61202180F83A107B
:10F6B00070470168CA6822F0C002CA60202180F841
:10F6C0003910704710B590F83A10222901D0022065
:10F6D00010BD8168B1F5805F11D001690029016812
:10F6E0001FD0496801F07F03816A4A1C82620B7057
:10F6F000C18D491E0904090CC18518D026E0026994
:10F70000816A002A0268526805D0D2B20A80816AF2
:10F71000491C8162ECE7C2F308020A80816A891CF5
:10F72000F7E74A68816A4B1C83620A70E0E7016868
:10F73000CA6822F49072CA6001684A6922F0010224
:10F740004A61202180F83A10FFF760F9002010BDCF
:10F750002DE9F04104460068016921F44052E16856
:10F76000114301612168C86849F20C629043236922
:10F77000A268E5691A4363692B431A430243CA60CE
:10F780002168486920F44072A06910434861E1692A
:10F790006425B1F5004F9748974A21684FF0320829
:10F7A0003FD0914201D081427CD1FEF7B1FB00EB0A
:10F7B000C00101EB001061688900B0FBF1F6FEF7B3
:10F7C000A7FB00EBC00101EB001061688900B0FBF2
:10F7D000F1F0B0FBF5F06FF01801484306EB800143
:10F7E00008EB0110B0FBF5F000F0F006FEF790FB1F
:10F7F00000EBC00101EB001061688900B0FBF1F083
:10F80000B0FBF5F006EB0016FEF782FB00EBC00143
:10F8100001EB001061688900B0FBF1F7FEF778FB9F
:10F82000D2E0914201D081423DD1FEF771FB00EB65
:10F83000C00101EB001061684900B0FBF1F0B0FBC2
:10F84000F5F00601FEF764FB00EBC00101EB0010D0
:10F8500061684900B0FBF1F7FEF75AFB00EBC0010D
:10F8600001EB001061684900B0FBF1F0B0FBF5F06E
:10F870006FF01801484307EB800108EBC100B0FBB3
:10F88000F5F000F0F80006EB4006FEF741FB00EB58
:10F89000C00101EB001061684900B0FBF1F7FEF711
:10F8A00037FB3CE055E0FEF71BFB00EBC00101EB32
:10F8B000001061684900B0FBF1F0B0FBF5F0060103
:10F8C000FEF70EFB00EBC00101EB00106168490080
:10F8D000B0FBF1F7FEF704FB00EBC00101EB0010F9
:10F8E00061684900B0FBF1F0B0FBF5F06FF0180172
:10F8F000484307EB800108EBC100B0FBF5F000F0D6
:10F90000F80006EB4006FEF7EBFA00EBC00101EB56
:10F91000001061684900B0FBF1F7FEF7E1FA00EB77
:10F92000C00101EB001061684900B0FBF1F0B0FBD1
:10F93000F5F06FF01801484307EB800108EBC100B8
:10F94000B0FBF5F000F00700216830448860BDE8A6
:10F95000F081FEF7C5FA00EBC00101EB0010616811
:10F960008900B0FBF1F6FEF7BBFA00EBC00101EB3A
:10F97000001061688900B0FBF1F0B0FBF5F06FF0AA
:10F980001801484306EB800108EB0110B0FBF5F0CD
:10F9900000F0F006FEF7A4FA00EBC00101EB001046
:10F9A00061688900B0FBF1F0B0FBF5F006EB0016E2
:10F9B000FEF796FA00EBC00101EB001061688900C8
:10F9C000B0FBF1F7FEF78CFA00EBC00101EB001081
:10F9D00061688900B0FBF1F0B0FBF5F06FF0180141
:10F9E000484307EB800108EB0110B0FBF5F000F095
:10F9F0000F00A9E7001401400010014090F83910F1
:10FA0000212901D0022070478168B1F5805F016A29
:10FA10000BD04A1C0262026809785160C18C491EF1
:10FA20000904090CC1840ED017E009880268C1F3EB
:10FA30000801516001690029016A02D0491C016274
:10FA4000ECE7891CFBE70168CA6822F08002CA6003
:10FA50000068C16841F04001C16000207047038820
:10FA6000408863F30F0260F31F420A607047000092
:10FA70000A4800680168C943090602D4C16809063A
:10FA800008D40168C943490602D4C068400601D4BD
:10FA900001F09CBB0148FEF737BE00006402002065
:10FAA000FEE7FEE702E008C8121F08C1002AFAD1EB
:10FAB00070477047002001E001C1121F002AFBD1EE
:10FAC0007047000070B5064D00242878012802D048
:10FAD0000624204670BD2869804700202870F8E77A
:10FAE0001400002070B50C460988002505292DD189
:10FAF000417840F2CF760A0281781143C27813022E
:10FB000002791A43531EB34220D2002323800123DB
:10FB100000F8013B2688761C2680560703D003EBAD
:10FB2000D203DEB201E0C2F3C70600F8016B2388FE
:10FB30005B1C2380002300F0CCFA18B100F0F9FF21
:10FB4000054604E020883044208000E00325284654
:10FB500070BD70B50C460988002505292DD1417866
:10FB600040F2CF760A0281781143C27813020279FB
:10FB70001A43531EB34220D200232380022300F8ED
:10FB8000013B23885B1C2380530704D0012303EB34
:10FB9000D203DEB201E0C2F3C70600F8016B23888E
:10FBA0005B1C238000F097FA18B100F0C2FF0546F5
:10FBB00004E020883044208000E00325284670BD02
:10FBC00070B50C4609880026052923D141780579AE
:10FBD0000A02817811436A1E7C2A1BD800222280E7
:10FBE000032200F8012B22880023521C22806A0085
:10FBF00000F8012B2288521C22802A4600F06EFA5F
:10FC000018B100F096FF064605E0208800EB45009D
:10FC1000208000E00326304670BD70B50C46098890
:10FC20000026052925D1417805790A0281781143FA
:10FC3000C27845EA02256A1E7C2A1AD20022228056
:10FC4000042200F8012B2288521C22806A0000F84E
:10FC5000012B2288521C22802A4600F00FFC18B18A
:10FC600000F067FF064605E0208800EB4500208095
:10FC700000E00326304670BD2DE9F04104460888B7
:10FC800000270D460A2842D3607826790102A07821
:10FC9000227A0843401C1FFA80F8E07846EA0026E2
:10FCA0006079731E0102A0790843401C81B2E0799B
:10FCB0007C2B42EA0022607A28D83AB3792A25D8E8
:10FCC000B0EB420F22D1012304F10A0000F006FA42
:10FCD00098B900212980172121702988601C491CAE
:10FCE0002980710000F8011B29880023491C298004
:10FCF0003246414600F0F2F918B100F01AFF07460B
:10FD000005E0288800EB4600288000E003273846FD
:10FD1000BDE8F08170B5064C0D4606492288401CAE
:10FD2000FCF7D6F92088401C2880002070BD000018
:10FD3000D20000209805002038B509880024052944
:10FD400009D141780A028178114302791AB9C2783F
:10FD5000FF2A03D012B10324204638BD00228DF8BB
:10FD60000120C078FF280CD08DF8002001231A460E
:10FD7000684600F0AEF90028EED000F0DAFE044646
:10FD8000EAE701208DF80000F0E710B509880024AB
:10FD9000052902D00324204610BD417801230A0220
:10FDA0008178C01C11431A4600F098F90028F2D05F
:10FDB00000F0BFFE0446EEE72DE9F0410D4609884C
:10FDC0000024052923D9417846790A028178114314
:10FDD000C278130202791A43530704D0012303EBBC
:10FDE000D203DBB201E0C2F3C703571EB7F5F66FCB
:10FDF0000DD2B3420BD10123801D00F06AF918B176
:10FE000000F097FE044603E00520288000E003246C
:10FE10002046BDE8F08170B50D460988002406290A
:10FE20001BD341780A0281781143C2781302027908
:10FE30001A434379561E772E0FD85606360E9E4229
:10FE40000BD10123801D00F049F918B100F071FEBB
:10FE5000044603E00520288000E00324204670BD0E
:10FE60002DE9F0411D46069B1746064629B1F729A4
:10FE700003D8134C084621710EB102251BE011492D
:10FE80002161114961611149E1601149A1610021BC
:10FE9000E16110492162104961621049A1622A465C
:10FEA000394600F077F8050005D101F023F928B1B3
:10FEB0006671012020702846BDE8F0810325FAE72D
:10FEC0001400002095000108B9000108290001086C
:10FED000DDFF0008CD1101081D120108E111010824
:10FEE00038B52B4C207808B1062038BD684601F0A3
:10FEF000F3F801284AD19DF80000E8B3012802D0A8
:10FF0000022843D10FE0224AA369921D911CC81F09
:10FF1000984788BB60782179884200D060BB022076
:10FF200001F0F0F832E0A0680121194B0278A270CC
:10FF3000E170002113F12C0313F8315065B19542A3
:10FF400007D103EBC1014A681149891D9047E07050
:10FF500002E0491C1029EFDB607868B1E07880B1DD
:10FF60000021E180A17841F08002A1680A70E28856
:10FF7000521C92B2E28000E008E08854E088401C05
:10FF8000E080D4E90213E28820799847002038BD48
:10FF9000140000202DE9F0411F4615460E460024AE
:10FFA000FCF72EFE3B4608222946304601F0B2F807
:10FFB00001280AD108496800B1FBF0F000B901201E
:10FFC00080B201F0C7F8012800D00324FCF71AFE24
:10FFD0002046BDE8F0810000A07F17002DE9F04128
:10FFE0001646884607460025FCF70AFE0C4CA088FA
:10FFF000042804D3A1880B4800F072FE28B105251F
:020000040801F1
:10000000FCF700FE2846BDE8F0810648007838700D
:10001000A088C01E30800348401CC8F80000EFE7ED
:10002000C0000020300400202DE9F04190460E462B
:1000300007460025FCF7E4FD144C6078012806D043
:100040005FF00505FCF7DEFD2846BDE8F081701E77
:100050000126A06066800770628802EB080161805B
:10006000618800F03DFE6188094A5318491C61808F
:100070001870010A60880244401C6080117026706C
:100080000121002000F086FEDCE70000C000002017
:100090003004002010B5FCF7B3FD0649002048707D
:1000A0000146012000F076FE00F098FEBDE8104009
:1000B000FCF7A8BDC000002010B5FCF7A1FD002191
:1000C000084600F067FE00F07BFEBDE81040FCF73C
:1000D00099BD012070470120704700002DE9F04FC5
:1000E0008046002089B0164607460890B1F5FA6FA1
:1000F00076D38819B0F5FE6F72D8DA48DA4C4088AA
:1001000004F10A0B0D1A04F10E0007900830069056
:1001100008300590001D049008300390001D0290E7
:10012000001D04F11A0A04F12609019013B1012BF4
:1001300055D18AE1CD4F3868018821804068A11CE3
:10014000FCF7EEFE3868A11D8068FCF7E9FE386810
:100150005946C068FCF7E4FE386807990069FCF767
:10016000DFFE3868017D61820021A18280690699E5
:10017000FCF7D6FE38685146C069FCF7D1FE3868F6
:100180000599006AFCF7CCFE38680499406AFCF7D0
:10019000C7FE38684946806AFCF7C2FE3868039992
:1001A000C06AFCF7BDFE38680299006BFCF7B8FE28
:1001B00038680199406BFCF7B3FE0EE034F8150087
:1001C000761E010A88F8001008F1010014F81510D5
:1001D00000F8011B8046B6B26D1C002EEED13DE149
:1001E0003AE100BF98F80000010208F1010024F88C
:1001F000151010F8012B8046114324F815101B2D03
:100200007DD2DFE805F00E7C1C7C347C4C7C647D68
:10021000857C927CA47CB67CC77CD87CE97CFD7C08
:10022000FA00208842F20672A0F10A01914266D8D3
:100230008E4909680A88824261D0088001E16946D6
:10024000A01CFFF70CFC009911F1FF4FD8D2884891
:10025000814254DC8548874A00684068FCF73AFED2
:1002600000284CD18148009900684160E9E0694666
:10027000A01DFFF7F4FB009911F1FF4FC0D27C489D
:100280008142E6DC79487B4A00688068FCF722FE00
:100290000028E6D17548009900688160D1E0694680
:1002A0005846FFF7DCFB009911F1FF4FA8D27048C8
:1002B0008142CEDC6D486F4A0068C068FCF70AFED8
:1002C0000028CED1694800990068C160B9E069464C
:1002D0000798FFF7C4FB009911F1FF4F90D26448D3
:1002E0008142B6DC6148634A00680069FCF7F2FDB0
:1002F000002804D15D48009900680161A1E013E085
:100300005A480168608A0A7D82420DD0087598E0DB
:10031000A08A002808D00020A08203460246014699
:100320005548006801F00CF98CE069460698FFF723
:1003300096FB4E484F4A009900688069FCF7CAFD59
:1003400000287FD1494800990068816179E06946B9
:100350005046FFF784FB4548464A00990068C0694B
:10036000FCF7B8FD00286DD1404800990068C161D4
:1003700067E069460598FFF772FB3C483D4A0099E3
:100380000068006AFCF7A6FDC8BB38480099006801
:10039000016256E069460498FFF761FB3348354A2D
:1003A00000990068406AFCF795FD40BB2F48009912
:1003B0000068416245E069464846FFF750FB2B481C
:1003C0002C4A00990068806AFCF784FDB8B9274878
:1003D00000990068816234E069460398FFF73FFBAB
:1003E0002248244A00990068C06AFCF773FD30B9BE
:1003F0001E4800990068C16223E012E000E021E09D
:1004000069460298FFF72BFB18481A4A00990068C2
:10041000006BFCF75FFDA8B9144800990068016300
:100420000FE069460198FFF71AFB1048114A00993E
:100430000068406BFCF74EFD20B90C48009900683D
:1004400041630127761EB6B26D1C002E7FF4CAAE42
:1004500027B1FCF717FB01E001200890089809B0CC
:10046000BDE8F08FCC0000205805002010000020CF
:100470000000FE42ACC527370C0000202DE9F047F4
:10048000054616460C464FF000093548FDF7CFFBF0
:10049000B4F57A7F5FD3A019B0F57F7F5BD8314880
:1004A0000088271A304C2088FCF794FA2F49FCF773
:1004B00037FD6088FCF78EFADFF8B08008F10401A0
:1004C000FCF72EFDA088FCF785FA08F10801FCF77F
:1004D00027FDE088FCF77EFA08F10C01FCF720FD0F
:1004E0002089FCF777FA08F11001FCF719FD608903
:1004F000FCF770FA08F11401FCF712FDA089FCF773
:1005000069FA08F11801FCF70BFDE089FCF762FAC3
:1005100008F11C01FCF704FD1548006890F839103B
:100520001448A8F8201001781348A8F82210017880
:100530004046A8F824100BE030F81710761E090A80
:1005400005F8011B10F8171005F8011BB6B27F1C47
:10055000002EF1D101E04FF001094846BDE8F087D7
:10056000D8010020CC000020C4030020300500206A
:10057000100000200A000020080000200348818DA0
:10058000406B00684068081A80B27047640200201F
:1005900086B0FDF75BFBFEF710FFFEF70DFC2F4862
:1005A0000024016841F4800101600068224600F4E3
:1005B0008000059005213820FDF7AEFB3820FDF7BF
:1005C0009FFB002205213A20FDF7A6FB3A20FDF70C
:1005D00097FB002205214620FDF79EFB4620FDF7F4
:1005E0008FFBFEF783FBFEF759FC1E481C49016098
:1005F0004FF46121C0E901140C21C460C0E9044139
:100600008461C461FEF708F900B1FEE7FEF762FC01
:10061000FEF78AFC134814498C38016006214160BA
:10062000FA218160FDF7DAFA00B1FEE7FCF7F2F992
:10063000FCF7B2FAFCF72AF9FEF7F0FCFEF7A0FC93
:1006400014220A496846FBF743FD0021684600F082
:100650002DF80749086000F01AF8FEE7303802402C
:10066000001001406402002000300040181A010808
:100670000000002001460020842900D0C81C7047DB
:1006800010B500B9012000F025FC002010BD10B508
:1006900000F0B8FC002010BD10B501F063F801288F
:1006A00003D0BDE8104000F017BE10BD3EB50446B3
:1006B0000D46B0F90800FFF7DDFF02A9CDE9000102
:1006C000208A2B4682B2D4E9001001F01FF80128DD
:1006D00001D000203EBD02983EBD00002DE9F04152
:1006E000184C0F460546E6682068001D00F00EFB1A
:1006F00038B9206890F82C10012088402169814386
:100700002161681C07D137B12168BDE8F0410E486E
:10071000091D00F033BB20683544B54245602168AF
:1007200005D2A06BBDE8F041091D00F00FBB606B66
:10073000091D00F00BFBA06A854200D2A562BDE84E
:10074000F0810000DC000020B40600202DE9F0411B
:10075000054600F04DFB2E4CA068401CA0602068B0
:100760002C4F10B1606940B32DE02560A0680128CE
:1007700029D1002606EB860007EB800000F0D8FAAE
:10078000761C072EF6D323488C3000F0D1FA21488E
:10079000A03000F0CDFA1F48B43000F0C9FA1D486F
:1007A000C83000F0C5FA1B48DC3000F0C1FA194827
:1007B0008C3060631430A06305E02068E96AC06A89
:1007C000884200D82560606A401C6062E96A0120A6
:1007D000226988401043206101EB810007EB800013
:1007E000291D00F0CBFA00F023FB606900280CD033
:1007F0002068E96AC06A884207D207494FF08050F2
:100800000860BFF34F8FBFF36F8FBDE8F08100002A
:10081000DC000020D805002004ED00E070B5114E8A
:10082000114C17E000F022FC3068B8B101F092F8EA
:1008300000F0DEFAF068C568281D00F067FAA068CD
:10084000401EA0606068401E606000F0F1FA28461B
:1008500000F055F860680028E4D170BD01F07AF826
:10086000F8E70000A0060020DC00002030B4026C95
:100870000B46002A0BD0C1681144C1604468A142F4
:1008800001D30168C16030BC1846FBF721BC30BC05
:1008900070472DE9F041856B174604460026026C2F
:1008A00082B1C7B1E068FBF713FCE168206C091A5C
:1008B000E1602268914202D26168081AE060022F6A
:1008C00016D017E02068A8B9606800F0BDFF0646A2
:1008D000002060600EE0A068FBF7FAFB216CA068C6
:1008E0000844A0606168884204D32068A06001E0E9
:1008F00005B16D1E6D1CA5633046BDE8F08110B5D5
:100900000446006B00F0A8FA2046BDE8104000F055
:10091000A3BA000010484FF47051420706D0C01D22
:100920000D4920F00700411AC1F570510B4A002310
:100930000144C2E900030839103A21F007011160AF
:100940004B600B600B1AC0E9001393604FF000403E
:100950005360D06070470000C806002028010020C6
:10096000074C4FF08056074DFFF758FF20680128CD
:10097000FAD92E60BFF34F8FBFF36F8FF4E70000FB
:10098000D805002004ED00E02DE9F0479A46DDE9A6
:10099000098481466FF00303206B03EB820210444D
:1009A000089D20F00706700707D0502080F31188BB
:1009B000BFF34F8FBFF36F8FFEE723180A5C83F8F6
:1009C00034200A5C12B1401C1028F6D3002784F8AA
:1009D0004370072D00D30625E562C4E91157201D99
:1009E00000F0B1F904F1180000F0ADF92461C5F18F
:1009F00007006462A061E76484F85070524649467B
:100A0000304600F02FF92060B8F1000F01D0C8F88F
:100A10000040BDE8F087000030B5114900E0114604
:100A20000A688242FBD34B685C18844203D1406859
:100A300018444860084643681C18944209D1084C81
:100A4000103C2468A24209D052681A4442600A68E5
:100A500012680260814200D0086030BD0460F9E78E
:100A60002801002010B5044600F0C2F9A06B28B19F
:100A70005FF0000400F0DCF9204610BD0124F9E726
:100A80000648416B096829B1416BC968C968496862
:100A9000816270474FF0FF31FAE70000DC00002070
:100AA00008484068401C4FF0500080F3118804D083
:100AB000BFF34F8FBFF36F8FFEE7BFF34F8FBFF3CF
:100AC0006F8FFEE7300100202DE9F041044600F071
:100AD0008FF994F9455004F1240609E0606A48B1A1
:100AE000304600F0FDFE08B100F01AFA6D1E6DB23E
:100AF000002DF3DC4FF0FF3684F8456000F098F9E4
:100B000000F076F994F9445004F1100709E02069E7
:100B100048B1384600F0E4FE08B100F001FA6D1E5D
:100B20006DB2002DF3DC84F84460BDE8F04100F0C4
:100B30007FB9002804D0012803D0072803D004205F
:100B4000704702207047062070470000074810B524
:100B500000688047002807D005494FF080500860A2
:100B6000BFF34F8FBFF36F8F10BD00003800002020
:100B700004ED00E02DE9F0410546002700F076FA8B
:100B8000314E306808B9FFF7C5FEF06805424BD119
:100B9000C5B3083568070ED005F00700C0F108009E
:100BA0000544680707D0502080F31188BFF34F8FAA
:100BB000BFF36F8FFEE72DB37068854234D82248AB
:100BC000103001460C6801E020460C466168A942DD
:100BD00002D221680029F7D131688C4224D00768FD
:100BE0002168016060680837411B10290FD960191E
:100BF000420708D0502080F31188BFF34F8FBFF316
:100C00006F8FFEE710E041606560FFF705FF6168E8
:100C10007068401A7060B268904200D2B060F068AC
:100C200001430020C4E9000100F094FE780707D0DA
:100C3000502080F31188BFF34F8FBFF36F8FFEE713
:100C40003846BDE8F081000018010020044908681A
:100C500018B10868826C521C8264086870470000F2
:100C6000DC00002010B5031F4FF080741C601B1FB8
:100C700021F001011960191F024B0B601439403833
:100C80000A6010BDA10A010810B500680749C842F2
:100C90000AD1821506490748FDF76CFE0548006831
:100CA000C16841F02001C16010BD000000F0FEBF2E
:100CB000300400206402002010B500680649C842D4
:100CC00008D10648FDF7F1FC04480068C16821F02E
:100CD0002001C16010BD000000F0FEBF64020020D2
:100CE00070B5094DFF231A4605F5807606E000BF72
:100CF00010F8014B54402A5D5A40335D491E89B2B9
:100D0000F6D242EA032070BD781A0108D0E9013218
:100D100001699A60D0E901235A604A68824201D190
:100D200082684A60002202610868401E08607047BD
:100D300000F108014FF0FF32C0E90112C16001610A
:100D400000210160704700210161704730B50B68D8
:100D50005A1C02D000F1080202E0026904E02246B7
:100D6000546825689D42FAD953684B6099608A603F
:100D7000516008610168491C016030BD42684A60E9
:100D800093688B6093685960916008610168491CA1
:100D90000160704710B5002807480C4602D0FFF7E5
:100DA00073FF01E0FFF788FF002C04D003480068C0
:100DB000BDE81040004710BD64020020380000204C
:100DC00010B50548FDF71EFB03480021026851627B
:100DD0000068891E016110BD240200200349002023
:100DE000096848620148FDF7EBBA000024020020C0
:100DF000502080F31188BFF34F8FBFF36F8F0A49E4
:100E00004868401C486001280CD10848006810F070
:100E1000FF0F07D0502080F31188BFF34F8FBFF32F
:100E20006F8FFEE7704700003001002004ED00E006
:100E30000849486828B1401E486001D180F31188F4
:100E40007047502080F31188BFF34F8FBFF36F8F2F
:100E5000FEE700003001002070B5002827D0144DB7
:100E6000A0F108046168E868014207D1502080F3CE
:100E70001188BFF34F8FBFF36F8FFEE722683AB13F
:100E8000502080F31188BFF34F8FBFF36F8FFEE7C1
:100E90008143616000F0EAF860686968084468604E
:100EA0002046FFF7B9FDBDE8704000F053BD70BDAE
:100EB0001801002006484FF47A710068B0FBF1F188
:100EC0004FF0E020491E4161072101617047000099
:100ED000D400002010B5020014D00F48006B38B1C8
:100EE000502080F31188BFF34F8FBFF36F8FFEE761
:100EF00000F0BCF800211046FFF7F0FB00F02AFDDF
:100F0000002807D105494FF080500860BFF34F8F8C
:100F1000BFF36F8F10BD0000DC00002004ED00E087
:100F200001490120C8617047DC00002010B50C4663
:100F300050B1094909681831FFF708FF2046BDE89C
:100F400010400121FFF7CABB502080F31188BFF386
:100F50004F8FBFF36F8FFEE7DC00002070B50400F9
:100F600039D01D4DE06A2968C96A884233D2A06928
:100F7000002804DB2868C06AC0F10700A061E16AAC
:100F8000164E01EB8101606906EB810188421FD199
:100F9000201DFFF7BBFE012150B9E06A00EB800283
:100FA00056F8222022B92A6901FA00F082432A6108
:100FB0002868C06AE0622A6981401143296100EB18
:100FC000800006EB8000211DBDE87040FFF7D6BE13
:100FD0002868C06AE06270BDDC000020D8050020EF
:100FE00028B107490A6A0260C96841607047502009
:100FF00080F31188BFF34F8FBFF36F8FFEE70000C0
:10100000DC0000201CB515480024CDE90040234633
:10101000802213A1144800F079FB012809D0401C5C
:101020001AD1502080F31188BFF34F8FBFF36F8F19
:10103000FEE7502080F31188BFF34F8FBFF36F8F0F
:1010400006484FF0FF312C38816201214161C460B4
:10105000BDE81C4000F006B91CBD000008010020DE
:1010600049444C4500000000610901080248016B39
:10107000491C016370470000DC0000201448016B2C
:1010800011B10121C16170470021C1610169B1FA4B
:1010900081F1C1F11F0101EB81020E4951F82230AB
:1010A0006BB101EB820101F108034A6852684A60A2
:1010B0009A4201D152684A60D1680160704750205D
:1010C00080F31188BFF34F8FBFF36F8FFEE70000EF
:1010D000DC000020D80500200549024600204B789E
:1010E000002B04D008781070002048700120704751
:1010F000D000002002490020487001207047000005
:10110000D0000020024901224A7008701046704742
:10111000D0000020094810B5074AC0E9002100218D
:101120008160C0E903130C22C0E90521C161FDF70C
:1011300073FB012010BD000000100140640200207C
:101140000A4610B501460248FDF762FC012010BDB9
:101150006402002030B5054687B01048FDF73CF921
:101160000E490F480024C1E900044FF4966045433E
:10117000C1E9024508460C61FDF7D6F84FF48050EE
:10118000009069460548FDF752F9049404A9034804
:101190000594FDF7A1F807B0012030BD240200201E
:1011A00000080040074810B500688047002807D0B5
:1011B00005494FF080500860BFF34F8FBFF36F8F2A
:1011C00010BD00003C00002004ED00E010B5FFF76A
:1011D00005FE024902204870002010BDC00000201A
:1011E00070B50D4D0024687810B1022803D101209C
:1011F000FFF788FF0446FFF7E3FD00210846FFF7ED
:10120000C9FDFFF7BBF9A88000210120FFF7C2FD4F
:1012100001206870204670BDC000002070B5104CE1
:101220000025207810B1012817D104E00021012009
:10123000FFF7B0FD11E06088002628B16188A06842
:10124000FFF77EFF668008E00320FFF75BFF05469F
:1012500000210120FFF79EFD2670284670BD00008A
:10126000C00000201CB5194908780190FF200870C3
:1012700008788DF800009DF80000154A00F0500035
:1012800010700720906005E09DF800305B008DF83D
:101290000030401E9DF800301B06F5D4000200F41B
:1012A000E0609060019808700A48016841F470019C
:1012B0000160016841F070410160FFF7FBFD002013
:1012C0005060FAF7B9FE00201CBD000000E400E009
:1012D0003001002020ED00E010B5502080F311888F
:1012E000BFF34F8FBFF36F8F00F04AFA18B1044974
:1012F0004FF080500860002080F3118810BD00007E
:1013000004ED00E070B50E46050013D0D6B105FB24
:1013100006F04830FFF72EFC040009D004F1480124
:1013200020468EB10160C0E90F56012100F0C4F8DB
:10133000204670BD502080F31188BFF34F8FBFF35C
:101340006F8FFEE70020E4E70060ECE72DE9FF4F38
:10135000002683B09B468A46040003D0BAF1000FF2
:1013600008D011E0502080F31188BFF34F8FBFF3F6
:101370006F8FFEE7206C38B1502080F31188BFF3E7
:101380004F8FBFF36F8FFEE700F0ECF9DFF8248199
:101390004FF000094FF0805748B9059838B15020F8
:1013A00080F31188BFF34F8FBFF36F8FFEE7FFF716
:1013B0001FFDA56B45B351462046E668FFF756FA78
:1013C000BBF1000F13D0E660606A50B104F1240055
:1013D00000F086FA28B1C8F80070BFF34F8FBFF352
:1013E0006F8FFFF725FD012007B0BDE8F08F6D1E60
:1013F000A563206810B9FFF729FC60602069002808
:10140000EFD004F11000E3E7059808B11EB106E043
:10141000FFF70EFD27E06846FFF7E2FD0126FFF724
:1014200007FDFFF723FEFFF7E3FC94F94400401C9F
:1014300001D184F8449094F94500401C01D184F80E
:101440004590FFF7F5FC05A9684600F029F900284A
:1014500020460AD0FFF738FB00F07CFA2046FFF761
:1014600001FB0028A3D00020BEE7FFF7FBFAD8B1AC
:10147000206830B9FFF7BCFC6068FFF76FFDFFF72D
:10148000D7FC04F124000599FFF750FD2046FFF733
:101490001BFB00F05FFA002889D1C8F80070BFF389
:1014A0004F8FBFF36F8F82E72046FFF70DFB00F0F1
:1014B00051FA7CE704ED00E070B50D46040025D03C
:1014C000FFF796FCD4E90F20216802FB0011616050
:1014D0000021A1632168A1600A46D4E90F01401EE2
:1014E00000FB0121E16021464FF0FF3001F8440F7D
:1014F000487004F110008DB1FFF71AFC04F12400CC
:10150000FFF716FCFFF794FC012070BD502080F31C
:101510001188BFF34F8FBFF36F8FFEE7216900295A
:10152000F0D000F0DDF90028ECD004494FF08050F5
:101530000860BFF34F8FBFF36F8FE3E704ED00E068
:101540002DE9FF4782B01D468A464FF0000804008F
:1015500003D0BAF1000F08D011E0502080F31188B9
:10156000BFF34F8FBFF36F8FFEE7206C38B1502071
:1015700080F31188BFF34F8FBFF36F8FFEE7022D0B
:101580000AD1E06B012807D0502080F31188BFF307
:101590004F8FBFF36F8FFEE700F0E4F83F4F4FF03F
:1015A00000094FF0805648B9049838B1502080F3B4
:1015B0001188BFF34F8FBFF36F8FFEE7FFF718FC63
:1015C000A06BE16B884207D3022D05D00498D0B1FF
:1015D000B8F1000F1AD01EE02A4651462046FFF708
:1015E00058F9616A19B104F1240000F079F920B1C9
:1015F0003E60BFF34F8FBFF36F8FFFF719FC0120E1
:1016000006B0BDE8F087FFF713FC22E06846FFF75D
:10161000E7FC4FF00108FFF70BFCFFF727FDFFF792
:10162000E7FB94F94400401C01D184F8449094F9FC
:101630004500401C01D184F84590FFF7F9FB04A94F
:10164000684600F02DF830B12046FFF73DFA00F073
:1016500081F90020D4E7FFF7CBFBA06BE16B884258
:1016600013D1FFF7E5FB04F110000499FFF75EFCCE
:101670002046FFF729FA00F06DF900289ED13E6060
:10168000BFF34F8FBFF36F8F98E7FFF7D1FB204673
:10169000FFF71AFA00F05EF990E7000004ED00E0B1
:1016A00070B50D46040019D005B3FFF7A1FB164A2B
:1016B000D1682868431C0FD02368126A934202D075
:1016C00062688A421AD96268891A814216D2401A1F
:1016D00028602046FFF784FC002410E0502080F3AF
:1016E0001188BFF34F8FBFF36F8FFEE7502080F359
:1016F0001188BFF34F8FBFF36F8FFEE70124FFF711
:1017000097FB204670BD0000DC0000202DE9FF5F44
:101710008346DDE90E87994616468A469000FFF714
:1017200029FA05001AD05420FFF724FA040012D039
:1017300025630021CDE90241CDE900874B463246C1
:1017400051465846FFF720F92046FEF7FFFF0120DB
:1017500004B0BDE8F09F2846FFF77EFB4FF0FF3056
:10176000F6E700000548416919B1006B18B1002087
:10177000704701207047022070470000DC00002005
:101780002DE9F0412E4C0027206B40B1A069401C90
:10179000A061E06900B101273846BDE8F081E66844
:1017A000761CE66013D1606B006838B1502080F37E
:1017B0001188BFF34F8FBFF36F8FFEE7606BA16B94
:1017C0006163A063206A401C2062FFF759F9A06A98
:1017D000DFF87080864209D3606B006880B1606B6F
:1017E000C068C568686886420DD2A0622068C06A79
:1017F00000EB800158F821000128CAD90127C8E769
:101800004FF0FF30F1E7281DFFF780FAA86A18B102
:1018100005F11800FFF77AFAE86A01212269814090
:101820001143216100EB800108EB8100291DFFF7C6
:10183000A5FAE86A2168C96A8842CDD30127CBE7B7
:10184000DC000020D805002070B504004FF0000136
:1018500040D0214D2868844207D0502080F3118861
:10186000BFF34F8FBFF36F8FFEE7A06C38B1401E00
:10187000A064636CE26A9A422CD040B12AE0502006
:1018800080F31188BFF34F8FBFF36F8FFEE7201DEA
:10189000FFF73CFA114A012150B9E06A00EB8003DE
